:100000000C9434000C943E000C943E000C943E0082
:100010000C943E000C943E000C943E000C943E0068
:100020000C943E000C943E000C943E000C94400056
:100030000C943E000C943E000C943E000C943E0048
:100040000C943E000C943E000C943E000C943E0038
:100050000C943E000C943E000C943E000C943E0028
:100060000C943E000C943E0011241FBECFEFD8E04C
:10007000DEBFCDBF0E94C2000C94D9000C940000DA
:100080001F920F920FB60F9211248F939F939BB1E3
:1000900080E289278BB99F918F910F900FBE0F90AF
:1000A0001F901895FC01DB01213071F018F022300F
:1000B000C1F00895208181E090E001C0880F4A9549
:1000C000EAF7822B80830895808121E030E001C02F
:1000D000220F4A95EAF72095822380838C9128236A
:1000E0000DC0808121E030E001C0220F4A95EAF77F
:1000F000922F9095892380838C91282B2C9308959F
:10010000FC0191E001C0990F6A95EAF72081292747
:1001100020839A0121153105C9F3AFE9BFE011979A
:10012000F1F700C0000021503109F4CFFC014081FB
:1001300021E030E001C0220F6A95EAF724272083EE
:100140000895FC01408121E030E001C0220F6A9552
:10015000EAF7242B20830895FC01908121E030E010
:1001600001C0220F6A95EAF720952923208308957C
:10017000FC01808190E002C0959587956A95E2F731
:1001800081700895559A809181008B6080938100E1
:10019000109285001092840080916F00826080939D
:1001A0006F0078948AEF90E09093890080938800A4
:0601B000FFCFF894FFCF21
:00000001FF
